:1000000009C00EC00DC00CC00BC00AC009C008C09A
:1000100007C006C011241FBECFE9CDBF23D079C0D1
:10002000EFCF94E681E0B49B80E0EBE2F1E0319722
:10003000F1F700C000009150B1F70895479A87B1D9
:10004000816287B986B1836086B9379A369A3699C4
:10005000FECF85B1379890E06FEF70E033D084E049
:10006000860F089588E087BBB49BFECFDADF882334
:10007000D9F3C2E047988BE291E00197F1F700C015
:1000800000004599FECF479AD9DF882351F090E0D0
:10009000EBE2F1E03197F1F700C000009F5F9813A9
:1000A000F7CFC39AEBE2F1E03197F1F700C000001F
:1000B000C398C150F9F603C0B4DF8823A9F2B499FC
:1000C000FBCFD2CF97FB072E16F4009406D077FD16
:1000D00008D00BD007FC05D03EF4909581959F4F3A
:1000E0000895709561957F4F0895AA1BBB1B51E140
:1000F00007C0AA1FBB1FA617B70710F0A61BB70B98
:10010000881F991F5A95A9F780959095BC01CD013C
:060110000895F894FFCFF2
:00000001FF
